:400000000080002011000000650900006509000008B5044B1A6803F53F5302331A6000F0A9FC00BFFA46004010B5054C237833B9044B13B10448AFF300800123237010BDF6
:400040004881FF1F00000000081A0000084B10B51BB108490848AFF300800848036803B910BD074B002BFBD0BDE81040184700BF000000004C81FF1F081A0000C880FF1FBE
:400080000000000008B562B600F00CF800F092F800F000F900F0BEFA00F0F2F900F036FAFCE700BF08B501F0B3FA01F04FF801F02DFA08BD10B5002210E00B4800F014FD34
:4000C00000F0A2F9C82001F003FC00F0B5F9C82001F0FEFB054800F007FD2246531CDCB2012AEAD910BD00BF0C1A0000201A000008B50D4B1B78042B06D1012001F096FA5D
:40010000002001F09FFA08BD022B06D8002001F08DFA012001F096FA08BD002001F092FA002001F083FA08BD6481FF1F10B501F001FA01F007FA80B2831E9BB2B3F5C77FA2
:4001400006D21B4C04232370FFF7D2FF207810BDA0F5EA43313B9BB242F20E72934206D8134C03232370FFF7C3FF207810BDA0F56A53193B9BB243F69622934206D80C4C54
:4001800002232370FFF7B4FF207810BDA0F2E93080B243F2AE63984206D8054C01232370FFF7A6FF207810BD014B187810BD00BF6481FF1F08B5024800F0EAFC08BD00BFCA
:4001C0004102000008B500F0ABF800F0C5F808BD08B500F0C1F800F0A3F808BD08B50022024B1A70024800F07FFC08BDCC80FF1F341A000008B5104800F076FC0F4B1B78F8
:4002000063B100F069F900F079F9FFF7E1FFFFF78DFF022804DCFFF7E1FF01E0FFF7D2FF322001F055FB00F0A7FC00F0BFFC322001F04EFB08BD00BF501A0000CC80FF1F61
:4002400008B500F09FFC034800F04EFCFFF7D2FF08BD00BF601A000008B50122024B1A70024800F041FC08BDCC80FF1F701A000008B500F081FC024800F036FC08BD00BFEB
:400280008C1A0000024B01221A705A70704700BF6881FF1F08B500F0EDFC034800F012FD00F004FD08BD00BF8502000010B504461A4B5B68032B2FD8DFE803F00211192108
:4002C000032001F0CBF9B4F1FF3F03D10322134B5A6010BD114A53681C44546010BD062001F0BCF90D4A53681C44546010BD0C2001F0B4F9094A53681C44546010BD0920CD
:4003000001F0ACF9012C03D10022044B5A6010BD024B5A6814445C6010BD00BF6881FF1F10B50B4800F0E0FB00240DE0094B1B78002BFBD00120FFF7B9FF052001F0C8FA00
:400340000022044B1A700134B4F5007FEEDB10BDA01A00006881FF1F10B50C4800F0C4FB00240EE00A4B1B78002BFBD04FF0FF30FFF79CFF052001F0ABFA0022044B1A7061
:400380000134B4F5007FEDDB10BD00BFAC1A00006881FF1F10B504461A4B9B68032B2FD8DFE803F002111921032000F005FCB4F1FF3F03D10322134B9A6010BD114A9368A1
:4003C0001C44946010BD062000F0F6FB0D4A93681C44946010BD0C2000F0EEFB094A53681C44546010BD092000F0E6FB012C03D10022044B9A6010BD024B9A6814449C6098
:4004000010BD00BF6881FF1F10B500240DE0094B5B78002BFBD00120FFF7BCFF052001F057FA0022034B5A700134B4F5806FEEDB10BD00BF6881FF1F10B500240EE0094B6F
:400440005B78002BFBD04FF0FF30FFF7A3FF052001F03EFA0022034B5A700134B4F5806FEDDB10BD6881FF1F002303E0FF21034AD1540133FE2BF9DD704700BFA082FF1F3B
:4004800008B500F089FC0122064B1A60FF21064800F0E0FDFF21054800F0F6FDFFF7E4FF08BD00BF00E100E0A082FF1F9C81FF1F10B50446FFF7D8FF064B1C7000F004FE4D
:4004C000002000F00DFC012001F002FA012000F007FC10BDA082FF1F08B5FFF727FE042803D11F20FFF7E4FF08BDFFF71FFE022802DC2020FFF7DCFF08BD00BF08B51E2054
:40050000FFF7D6FFFFF7E8FF08BD00BF38B500F085FD10F0100F19D000F0D0FD0546002412E00B4B1B5D142B02D0152B06D00AE0084800F0D9FAFFF78FFE04E0064800F073
:40054000D3FAFFF74BFE0134AC42EADB38BD00BF9C81FF1FB41A0000C01A000008B53138482842D8DFE800F0252941414141414141414141414141414141414141414141A5
:4005800041414141414141414141414141414141414141414141414130414141414141414141413341414141412D41363E4141413A000120FFF77EFD08BD0220FFF77AFD2C
:4005C00008BDFFF7FFFD08BDFFF702FE08BDFFF74FFE08BD1E20FFF76BFF08BD1F20FFF767FF08BD2020FFF763FF08BD10B500F059FA40B1044600F06BFA034800F074FA5B
:400600002046FFF7ABFF10BD6C1A000008B5FFF7EDFF08BD08B5094800F092FA00F034FA074800F061FA074800F05EFA064800F05BFA064800F058FA08BD00BF0D0600006A
:40064000CC1A0000F01A0000041B0000181B0000FEE700BFF0B40022174611E050F82760F3B226F0FF0608E001EB420511F812406D78A5550132013BDBB2002BF4D1013778
:40068000232FEBD9F0BC70470C4B1B78DBB203F007010B4A11701B09013213700122094B1A70102203F6F3031A702023064A1370F83213704422054B1A707047CF01004920
:4006C0006E5800400D510040085A00407658004008B50A46002101F08EF908BD08B501F07FF908BD38B500243A4B1C80502202331A700E2202331A801823374A1370EF219F
:4007000002321180023213704FF49C71023211800232137040F25721023211800232137045F6BF51023211800232137004222B492B48FFF7D3FF02222A4B1A7008224FF023
:4007400040231A70032103F500731970264B1B78DBB226490B70264B1A8041F25122023B1A8019250CE0234B1B7803F0010343EA440404F003044FF4F07001F0F5F8013D20
:400780000DB1032CEFD115B90320FFF761FF1A4B4FF480721A8007221A70002217490A704820023108701A700222033B1A7004220A331A70124A137843F03F031370013AD2
:4007C000137843F001031370013A137843F08003137038BD804000408640004024080048004100400043004008010049A14600402242004025420040044000400640004074
:40080000A2430040012807D8044B53F820201844017A13780B431370704700BF301B0000012808D8044B53F820201844017A137823EA010313707047301B000038B572B6CD
:40084000364A137843F00403137000240BE0344863001A19510001440A46098AD068FFF737FF0134E4B2072CF1D900240BE02C49A3001819420088180622016CC06BFFF7FA
:400880002DFF0134E4B2002CF1D026494FF09040FFF7E0FE0A24244B1C70244A137843F0020313701032137843F002031370204D2B7843F040032B70A2F58632513A137817
:4008C00043F01003137008221A491B48FFF706FF22461A491A48FFF701FF224619491A48FFF7FCFE224619491948FFF7F7FE194A137843F008031370174C61232370FFF7D0
:40090000F1FE812323700122144B1A70FFF7BCFE0E2229461248FFF7E1FE38BDE8460040301B0000900000488358004003500140A0430040F8070048025100400008004885
:40094000C05100400C080048105100401808004820510040224300400048004004000840B043004008B501F00FF803680C2B00D1FEE7FEE708B5104E104D16E029686B68A0
:40098000AC68002204E051F8040B43F8040B0432A242F8D1E868002203E0002143F8041B04328242F9D11035013E002EE6D100F0F1FFFFF767FBFEE7010000009C1B0000C6
:4009C00008B5104A104B1A60104A136843F40073136000230AE0032B03D80D4A52F8231000E00C490C4A42F8231001332F2BF2D90A4B1A780A4B1A70074A0A4B1A60FFF702
:400A00001DFF08BD0004FA050CED00E014ED00E000000000650900000080FF1FBC760040C080FF1F08ED00E07222084B1A702022A3F201131A7006229F331A704722103351
:400A40001A70002250331A70704700BF8A65004010B500F091FF04460A4A137843F020031370A2F20112137843F010031370FF32137843F01003137000F0F6FD204600F018
:400A80007FFF10BD9A65004008B5054B1B7823B9FFF7CAFF0122024B1A70FFF7D9FF08BD8481FF1F084B1B78DBB213F0200F06D0064A1078C0B213F01E0F02D17047002022
:400AC00070470020704700BF6964004049650040034B1B7813F0040FFAD1024B18707047686500404B65004038B5074B1B782BB938BDFFF7EDFF0134A4B201E005460024FB
:400B0000285D0028F5D138BD8481FF1F014B1B68D864704708ED00E04001C0B2014B1870704700BF03E400E00822014B1A60704700E100E00822014B1A60704780E100E07F
:400B400010B50446FFF7F6FF2046FFF7DFFF0720FFF7E2FFFFF7E8FF10BD00BF014B1B685864704708ED00E04001C0B2014B1870704700BF01E400E00222014B1A60704760
:400B800000E100E00222014B1A60704780E100E010B50446FFF7F6FF2046FFF7DFFF0720FFF7E2FFFFF7E8FF10BD00BF0222014B1A60704780E200E0014B1870704700BFCA
:400BC0007D640040084A137843F0020313701032137843F00203137002F65932137843F001031370704700BFA3430040014B1870704700BF0F4F0040014B1880704700BF0E
:400C0000104F0040014B1880704700BF124F004008B5154A137803F0010313700232137803F0FC031370114B1A7802F0CF021A701A7842F030021A701A7802F0F0021A700A
:400C40001A7842F00F021A70094A137843F0010313703120FFF7D0FF3120FFF7D3FF0020FFF7C4FF08BD00BF0C4F0040174F00400D4F004008B5054B1B7823B9FFF7C8FFDB
:400C80000122024B1A70FFF79DFF08BD8681FF1F014B1B689864704708ED00E04001C0B2014B1870704700BF02E400E00422014B1A60704700E100E00422014B1A6070479D
:400CC00080E100E010B50446FFF7F6FF2046FFF7DFFF0020FFF7E2FFFFF7E8FF10BD00BF044A137803F0FB03800000F00400184310707047C051004038B50024134B1C7003
:400D0000012510331D7000F037FE114A137843F01003137000F034FE07210E4B19700E4B1D60204600F008FE0C49204600F0F0FD10220B4B1A700B4B1C700B4B1C700B4BC7
:400D40001C70122000F07EF938BD00BF7B6400409B6400408C64004080E100E0C10D0000A083FF1FA583FF1FA483FF1FA683FF1F08B500F001FE064A137843F0200313708A
:400D800000F0FEFD034A137843F00103137008BD9C6400407B64004008B5074B1B7823B9FFF7AAFF0122044B1A70FFF7E1FF0122024B1A6008BD00BF8781FF1F00E100E04E
:400DC00008B5894B1B78DAB2884B1B7813F0400F40F00881854B1B7813F0100F00F0FF8012F0200F03D102F00903092B15D17F4B1B78DBB2112B10D17D490B7803F0DF039C
:400E00000B707C4B197801F0DF011970197841F0100119701021754B197012F0010F00F0E18012F0080F53D0734B1B7813F0010F37D0724B1A78D2B2714B1B78DBB29A421A
:400E40001BD26E4A1378DBB26E490968CB5CDBB269490B7005216C4B1970FF21633B197000214033197013780133DBB21370614A137843F0020313700FE0FF235E4A1370E6
:400E8000052173321170633A137000225F4B1A70584A137843F0060313701222534B1A7008BD0122584B1A70FF22633B1A70002240331A7011224D4B1A704E4A137843F000
:400EC000200313704A4A137843F02003137008BD464B1B78DBB2112B2DD14D4B1A78D2B24C4B1B78DBB29A4216D2434B1978C9B2012273331A70FF22633B1A7000224033B0
:400F00001A70434A1378DBB243480068C15413780133DBB2137008BD11223B4B1A70FF22633B1A70002240331A70324A137843F04003137008BD2D4B1B78DBB2122B4AD186
:400F400012F0020F2FD12D4B1A78D2B22C4B1B78DBB29A4216D2294A1378DBB229490968CB5CDBB224490B700521274B1970FF21633B197000214033197013780133DBB29A
:400F8000137008BDFF231C4A1370052173321170633A137000221D4B1A70164A137843F00403137008BDFF23134A1370152173321170633A13700022144B1A700D4B1A787E
:400FC00002F0FD021A701A7842F001021A701022064B1A7008BD002000F078FC08BD1022024B1A7008BD00BF6B640040A083FF1F8B640040A583FF1F08640040A483FF1FC7
:40100000A783FF1FB083FF1F7B64004058640040A683FF1FA883FF1FAC83FF1F0121064B1960064B18781A7802F02F021A70044B196000F0F000704780E100E0A583FF1F2D
:4010400000E100E000F07F00014B1870704700BF28640040024658B101230648036006480260064A11700021054A1170054A1360704700BF80E100E0B083FF1FA783FF1F80
:40108000A483FF1F00E100E0024658B101230648036006480260064A11700021054A1170054A1360704700BF80E100E0AC83FF1FA883FF1FA683FF1F00E100E0014B18789F
:4010C000704700BFA683FF1F0022014B1A707047A483FF1F084A137843F0010313701032137843F00103137002F5A5521E32137843F0800313707047A9430040044A137863
:4011000003F0FC0300F0030018431070704700BF0158004008B506220A4B1A70013308221A701A7842F010021A70812201331A70054A137843F0080313700320FFF7DEFFE2
:4011400008BD00BF005800400B5A004008B5054B1B7823B9FFF7DEFF0122024B1A70FFF7B9FF08BD8881FF1F10B59DF80840012C51D1013809282ED8DFE800F0052D2D054F
:401180002D2D0F192D230F2B03D92548007840B222E02448007840B21EE00F2B03D92248007840B218E02148007840B214E00F2B03D91F48007840B20EE01E48007840B24C
:4011C0000AE00F2B03D91C48007840B204E01B48007840B200E0002001EB401101FB02F1C90B8AB20D2B0BD8C3F10E0289B211418AB2611E124800EB810101338B7005E032
:40120000631E0F4901EB83030F219970013C0C4B23F8242010BD002000F058FB10BD00BF180100491C010049190100491D0100491A0100491E0100491B0100491F0100494F
:401240008C81FF1FF8B5074600F096FB06460D4D2B7843F003032B700B4C237843F0030323700A4B1F70032000F048FB2B7803F0FC032B70237803F0FC032370304600F0FD
:401280007FFBF8BDF8460040F9460040925800400022324B1A7101285FD170B53022304B1A70042202331A70062201331A70002401331C7001331C703F2201331A70023316
:4012C0001C7001331C7001331C7001250A331D70502203F527631A70072201331A70292201331A7001331C70552203331A705A2201331A7001331C7002331D70112201336A
:401300001A70192201331A70972201331A705220FFF798FF5822134B1A7001331C70052605331E70022201331A7001331C7001331C70204600F0B6F942F222220A4B1A60F3
:401340002946304600F0D2F92946222000F052FA06491D2000F0DCFA70BD70478C81FF1F004E004094580040B483FF1F95150000F0B583B0284D01272F70284E0024747133
:40138000102000F0A1F9102000F022FA07211D2000F0D2FA0422224B1A7001331C7007331C70204A137843F0180313701E4B1C7003F2F5231C7001331C700A22A3F2093362
:4013C0001A7001331C7002331C705B2205331A705E2201331A7004331C701422A3F68C231A70009710234FF4004247F602710320FFF7BAFE2B78013B06EB83039A780B4B0C
:401400001A702B78013B36F82320094B1A802878FFF73EFF03B0F0BDCD80FF1F8C81FF1F96580040075B0040935800400E4E00400C4E004070B500F09FFA06462A4B1B78E8
:401440002A4B1A7842F001021A701A7842F010021A7010331A7842F001021A701A7842F010021A70224D2B7843F002032B70214C237843F0020323701F4A137843F003036D
:401480001370032000F03AFA2B7803F0FD032B70237803F0FD032370184A137843F0060313707A22164B1A70164A137843F0010313701032137843F0010313700F3A1378DD
:4014C00043F0010313701032137843F0010313704FF000530C4A1360A2F5C0721360304600F04EFA70BD00BFCD80FF1FAA430040F8460040F94600409158004077580040AD
:4015000082580040A143004080E200E008B5084B9B794BB9064BDB7913F0FF0F01D1FFF727FF0122024B9A71FFF784FF08BD00BF8C81FF1F024A137843F001031370704774
:40154000004E00400E4B1B7803F00303012B03D80C4B188880B209E00A4A12780A49087842EA0020032B01D1084B1B78084B1B7913F0FF0F02D00022054B5A7100B270478C
:40158000144E0040104E0040114E0040124E00408C81FF1F704700BF024A137843F08003137070477A640040014B1870704700BF0D640040014B1870704700BF4D640040F0
:4015C000014B1870704700BF2D640040014B1870704700BF3D64004008B50C4A137803F0C00343F00B0313702332137843F0010313706420FFF7D8FF6420FFF7DBFF0E2020
:40160000FFF7DEFF1420FFF7E1FF08BD7A64004008B5054B1B7823B9FFF7DEFF0122024B1A70FFF7B9FF08BD9881FF1F044A137803F0BF03800100F0400018431070704726
:4016400020510040044A137803F07F03C001C0B218431070704700BF20510040014B1870704700BF79650040054A137843F0080313701032137843F008031370704700BF2F
:40168000A243004010B5002404E02046FFF7C8F80134E4B2012CF8D9FF22014B1A7010BDCE80FF1F10B50446FFF7ECFF2046FFF7A9F8014B1C7010BDCE80FF1F014B188839
:4016C00080B2704780400040034B1A7800F0F80010431870704700BF82400040024B187800F00700704700BF8240004070B505460E46FFF7F3FF0446FFF7E0FFA84256D0BF
:401700002B4B1B7803F0010294B900B185B938B9284B1D80284A137803F0BF03137070BD254A137843F040031370224B1D8070BD22B3002321490B7001240F310C700431EE
:401740000B700C390B7803F07F030B701A4B1B7813F0080F00D08DB9194B18800721013B1970164B1B7813F0010FFAD110490B7803F0FE030B700021104B19700C4B1B7819
:4017800013F0010F0DD00E4B1D800EB1032200E001220A4B1A70094B1B7813F0010FFAD170BD044B1D8002490B7813430B7070BDA24300408040004082400040014000402B
:4017C00002400040014B188880B2704700410040034B1A7800F0F80010431870704700BF02410040024B187800F00700704700BF0241004070B505460E46FFF7F3FF0446B2
:40180000FFF7E0FFA84256D02B4B1B7803F0010294B900B185B938B9284B1D80284A137803F0BF03137070BD254A137843F040031370224B1D8070BD22B3002321490B701E
:40184000012413310C7004390B7008390B7803F07F030B701A4B1B7813F0080F00D08DB9194B18800721013B1970164B1B7813F0010FFAD110490B7803F0FE030B700021C8
:40188000104B19700C4B1B7813F0010F0DD00E4B1D800EB1032200E001220A4B1A70094B1B7813F0010FFAD170BD044B1D8002490B7813430B7070BDA1430040004100405F
:4018C00002410040014000400240004001BE704710B5044605E0084B186800F045F8A4F50044B4F5004FF6D8034B586800FB04F000F03AF810BD00BFD080FF1F08B5034B31
:401900001B7A00FB03F000F02FF808BDD080FF1F70B504460E46074B1D681F2802D90020FFF7D4FF04F01F04103455F8240045F8246070BD08ED00E038B504460D460729EC
:4019400002D90020FFF7C2FF1F2C02D90020FFF7BDFF04F01F0000F1604000F564406D01EDB2057038BD00BF0230800803D000BF01380046FCD17047EFF3108072B67047AA
:4019800080F31088704700BF014B1868704700BF4081FF1F0E4B70B51E460E4C0025E41AA410A54204D056F8253098470135F8E700F0E2F8084B094C1E46E41AA410002573
:4019C000A54204D056F8253098470135F8E770BD841B0000841B0000841B00008C1B000010B5431E0A44914204D011F8014B03F8014FF8E710BD03460244934202D003F84C
:401A0000011BFAE7704700000000000042616C6C2044697370656E73696E670D0A00000042616C6C2044697370656E7365640D0A00000000436F696E6D6173746572203274
:401A40003030302064697361626C65640D0A0000436F696E2044657465637465640D0A00446574656374696F6E4953520D0A0000436F696E6D6173746572203230303020CA
:401A8000656E61626C65640D0A000000496E7465727570742052657365740D0A00000000466F72776172640D0A0000005265760D0A000000456E61626C650D0A0000000021
:401AC00044697361626C650D0A000000436F696E6D6173746572203230303020726561647920666F7220736572766963650D0A00723A2052656A65637420436F696E0D0A77
:401B000000000000613A2041636365707420436F696E0D0A00000000523A205265736574204465746563746F7220495352000000035B00402443004040000000004F0040AF
:401B40001800305100404000F0510040100000000140001000140140000800400140000A004C0140000200500140200060520040F007004806004300F8B500BFF8BC08BCE4
:401B80009E4670474D000000C1090000F8B500BFF8BC08BC9E46704729000000B01B0000C880FF1F800000007002000000000000000000000101FF000000E02EC05D00007C
:401BC0001800000000366E010000000000000000000000000000000000000000000000000000000000000000761B0000000000000000000000000000000000000000000097
:401C000000000000000000000000000000000000000000000000000000000000000000000000000000000000E080FF1F000000000000000000000000000000000000000026
:401C40000000000000000000000000000000000000000000000000000000000000000000000000000000000000000000000000000000000000000000000000000000000064
:401C80000000000000000000000000000000000000000000000000000000000000000000000000000000000000000000000000000000000000000000000000000000000024
:401CC00000000000000000000000000000000000000000000000000000000000000000000000000000000000000000000000000000000000000000000000000000000000E4
:401D000000000000000000000000000000000000000000000000000000000000000000000000000000000000000000000000000000000000000000000000000000000000A3
:020000040003F7
:0200000480007A
:40000000044F004005520040025A00400364004002650040040201400203014002050140020701405D0801404D0901404F0A01404E0B0140540C0140360D0140020F0140A5
:4000400003150140011701406B18014044190140581A0140551B014004400140054101401242014007430140054401400A450140074601400147014004480140074901408D
:400080000B4C01400D4D0140055001400251014001500A4B0D20164B0410083009601029110A0B040C04280489388C07880F8A72B980BF40D904DF0120022180A980B001E2
:4000C000E603EA10000403010403054907260A770B030D030E010F10106611251208134A14251501165218461A391B6F1D6C1E0420632101240425012804296C2D032E14E0
:400100002F1C301F32603360351F38083E013F144026440445B0470D481249FF4A7F4BFF4C424DA04E70500C580459045A045C015D015F0161096240630964306509804C21
:400140008201840388E88A148C028D048E4C8F0290C09214941496E898B09A039F05A03CACFFB101B2FFB502B704B808BF40D418D604D804D904DB04DC11DD30DF010040A5
:4001800001280280040205220621080109040B080D080F8610801140148015801608171419081D041E801F0420C8214027282D022E282F0A3280348135203692370438408A
:4001C0003D483E103F86450147204C804F20570D5A026004614063408104874090029580961097049A019B149F08A104A212A352A444A501A6C0A705A802A904B101B31038
:40020000B480C0FFC2FEC4F9CAF0CCF8CEF8D0A0D220D601D80DEA1003480512060A07240B010E0A0F30100811121202132419241B121C021E0C220A29062B092C012D0FC2
:400240003004320233703408350F36033E103F045280580459045B045C115D405F018140820183308402850389208A048BC08C038D058F6290039308940395069761990447
:400280009A039B639C03A003A103A403A704A803AB60AD24AE03AF80B007B3E0B50FB710BA02BB28D21DD420D604D804D904DB04DC11DD10DF01008804040504074909800F
:4002C0000A800C040D200E411082128015801680171419A01AA11B401E401F02200421102310241025A0261029802B042C802D802E102F10312032023404361539A23B0499
:400300003C103D423E803F084D404E025C125E40648065206C126F40734076019002910294249580962097509B159F40A104A207A310A650A741AA40AF08B201B410C0F57A
:40034000C2F9C4F9CAFCCCE5CEFFD6B0D8A0E888EC0100010112034505040601080209050C130D750E241006110512081426150516191732181119051A261C011F0820050D
:400380002107236024052502271028052B172E372F013170330F3430360F3B083E5056025728580459045B045C105D105E085F0180018E0592029A049B01A001B002B10135
:4003C000B204B401C040C103C515C702C817C9FFCAFFCBFFCDA0CF04D018D804D904DA04DB04DC14DD04DF01E040E2C0E440E540E6C0E8C0EAC0ECC0EEC00102030204A495
:40040000068A07400B480E280F8210801580171518181B021E021F2021012480250426062B302E9A3210364437113C063D503F80430A49024B0850805308671068106A820D
:400440006B086C016D106F157D408140821088118A109408C0F9C2FAC4F8CAF0CCF4CEF0D003D840DE108004E401E002E402EC10EE0800200308041C06430C410E0E0F55F6
:40048000117313041573170C1E1C2080220324412616292A2B442D032E082F44301A3140320F33303420350F36C0388039083A0A3BA03E103F054002474049FF4A074BFF78
:4004C0004C404D204EF04F0550085401580459045A045B045C335D335F01604061A8624063208108837089248A018B8A8D018E029201953F9602993FA512A78CB138B306B7
:40050000B402B501B601B7C0BE50BF40C032C104C205C401C50CC6E0C809C9FFCAFFCBFFCC62CDA0CEF0CF41D00CD804D904DA04DB04DC30DD03DF01E640E702E910EA3085
:40054000EB10ED10EE10EF12002001800504068007020A800B600E0116411704180419401D051E091F0820112111220224402540272528202F0A30083310340235013706AF
:40058000381039423E013F80400141144301472048104B405310564157405C405E085F116801691589118C108F40940496029D40A501A680AD08B108B202B540B610C0B33E
:4005C000C28CC4B0CA32CCC6CE9DD02FD208D6F0003C0241043C050C06420A040BF30D080E0311C3141815F3170C180419411A801C7F1D82201021FF240825042867291C69
:400600002A182BE32D0F2FF0302031C03280330F341F352C3640371C38803A203B283E0156025713580459045B045C335D305F01801882228438860487028C018E068F0197
:4006400098289C129E20A420A618AC20B102B201B63EB701BE04C035C101C5EBC60EC7C0C827C9FFCAFFCBFFCEF0CF44D00CD804D904DA04DC13DD03DF01E6C0EA40EB0270
:400680000004010103090544078008A009400A100E010F08132A16011704180419911B081D401E20212C2241232025012680288029102A48310832123340388839203F4496
:4006C000440247844F89568057025901680869406B1070447218730A85218640874489108A108B018C208E1091209201954896829701980299049A019B449C209D809E8080
:400700009F10A140A202A340A408A501A680A702AD04AF12B001C0BFC2C7C4AECA0FCC0FCE5ED050D210D601EC12324033013442CCF00C4096809C429F01C28017011B04FC
:400740003F08530457085B025F0296809B029C029F01AB02C420C610CE80D460D6C0EE808308840297089C02A708B640E6C031047C208104CC02DE015080530257085C80E4
:400780005F0288809C20D407D605E4014508AB08AF02B0A0B702D001E80DA5082510AF04C820EE10122016108630B510C430E040E44058085E016020660888208A01A508E6
:4007C000D603D803E001E4011280750289028E80AE08B008B508C408DE04E001E202E801EC08001A0C1A0E12100A1C0A00EB040C81830000430000009000000000000100EF
:40080000870040808700830000000000900000FBFB00F00000000000090000EFEF002F000000000022001801000000000000000000000000000000000000000000000000A0
:400840000000000000000000000000000000000000000000000000000000000000000000000000000000000000000000000000000000000000000000000000000000000078
:400880000000000000000000000000000000000000000000000000000000000000000000000000000000000000000000000000000000000000000000000000000000000038
:4008C00000000000000000000000000000000000000000000000000000000000000000000000000000000000000000000000000000000000000000000000000000000000F8
:4009000000000000000000000000000000000000000000000000000000000000000000000000000000000000000000000000000000000000000000000000000000000000B7
:0200000490006A
:0400000000004005B7
:0200000490105A
:04000000BC90ACAF55
:0200000490303A
:020000002C438F
:0200000490402A
:4000000000000000000000000000000000000000000000000000000000000000000000000000000000000000000000000000000000000000000000000000000000000000C0
:400040000000000000000000000000000000000000000000000000000000000000000000000000000000000000000000000000000000000000000000000000000000000080
:400080000000000000000000000000000000000000000000000000000000000000000000000000000000000000000000000000000000000000000000000000000000000040
:4000C0000000000000000000000000000000000000000000000000000000000000000000000000000000000000000000000000000000000000000000000000000000000000
:0200000490501A
:0C00000000012E16106900012E223CACFD
:00000001FF