:400000000080002011000000F9080000F908000008B5044B1A6803F53F5302331A6000F073FC00BFFA46004010B5054C237833B9044B13B10448AFF300800123237010BD06
:400040004881FF1F0000000098190000084B10B51BB108490848AFF300800848036803B910BD074B002BFBD0BDE81040184700BF000000004C81FF1F98190000C880FF1FA0
:400080000000000008B562B600F098F800F0DCF800F096FA00F0B6F900F074F800F00CFA00F038F8FAE700BF10B5002208E0074800F0E2FC00F082F9054800F0DDFC224621
:4000C000531CDCB2012AF2D910BD00BF9C190000B019000008B50E4B1B78042B06D1012001F06CFA002001F075FA08BD032B06D1002001F063FA002001F06CFA08BD022BBB
:4001000005D8002001F05AFA012001F063FA08BD6481FF1F08B501F0D5F901F0DBF980B2831E9BB2B3F5C77F03D20422144B1A7021E0A0F5EA43313B9BB242F20E7293420E
:4001400003D803220E4B1A7015E0A0F56A53193B9BB243F69622934203D80222084B1A7009E0A0F2E93080B243F2AE63984202D80122034B1A70FFF7ADFF014B187808BD14
:400180006481FF1F08B5064800F076FC01F008FA00F0A4FF01F082F9FFF7BCFF08BD00BFC419000008B500F0B5FC034800F064FC00F070F908BD00BFDC19000008B50248F9
:4001C00000F0AEFC08BD00BFA501000008B500F081F800F09BF808BD08B500F097F800F079F808BD08B5044B1B7813B1FFF7F4FF08BDFFF7EBFF08BDCC80FF1F08B500226C
:40020000024B1A70024800F037FC08BDCC80FF1FEC19000008B50122024B1A70024800F02BFC08BDCC80FF1F081A000008B500F06BFC00F083FC08BD024B01221A705A70D1
:40024000704700BF6881FF1F08B500F0DBFC034800F000FD00F0F2FC08BD00BF3902000010B504461A4B5B68032B2FD8DFE803F002111921032001F0B9F9B4F1FF3F03D1B8
:400280000322134B5A6010BD114A53681C44546010BD062001F0AAF90D4A53681C44546010BD0C2001F0A2F9094A53681C44546010BD092001F09AF9012C03D10022044BCA
:4002C0005A6010BD024B5A6814445C6010BD00BF6881FF1F10B50B4800F0CEFB00240DE0094B1B78002BFBD00120FFF7B9FF052001F0B6FA0022044B1A700134B4F5007F15
:40030000EEDB10BD241A00006881FF1F10B50C4800F0B2FB00240EE00A4B1B78002BFBD04FF0FF30FFF79CFF052001F099FA0022044B1A700134B4F5007FEDDB10BD00BFE8
:40034000301A00006881FF1F10B504461A4B9B68032B2FD8DFE803F002111921032000F0F3FBB4F1FF3F03D10322134B9A6010BD114A93681C44946010BD062000F0E4FB0B
:400380000D4A93681C44946010BD0C2000F0DCFB094A93681C44946010BD092000F0D4FB012C03D10022044B9A6010BD024B9A6814449C6010BD00BF6881FF1F10B5002428
:4003C0000DE0094B5B78002BFBD00120FFF7BCFF052001F045FA0022034B5A700134B4F5006FEEDB10BD00BF6881FF1F002303E0FF21034AD1540133FE2BF9DD704700BFA8
:40040000A082FF1F08B500F08FFC0122064B1A60FF21064800F0E6FDFF21054800F0FCFDFFF7E4FF08BD00BF00E100E0A082FF1F9C81FF1F10B50446FFF7D8FF084B1C706B
:4004400000F00AFE012001F00BFA002000F010FC0F2001F005FA012000F00AFC10BD00BFA082FF1F08B51E20FFF7E4FF08BD00BF08B5FFF74FFE042803D12020FFF7DAFFE8
:4004800008BDFFF747FE012802DC1F20FFF7D2FF08BD00BF08B5FFF7A5FEFFF73BFE022803DCFFF7ABFEFFF7E3FFFFF7DBFFFFF7FBFDFFF7BBFE08BD38B500F077FD10F023
:4004C000100F19D000F0C2FD0546002412E00B4B1B5D142B02D0152B06D00AE0084800F0CBFAFFF797FE04E0064800F0C5FAFFF785FE0134AC42EADB38BD00BF9C81FF1F44
:40050000381A0000441A000008B53138482841D8DFE800F02529404040404040404040404040404040404040404040404040404040404040404040404040404040404040D7
:40054000404040403040404040404040404040404040403E402D40333A40404036000120FFF7A2FD08BD0220FFF79EFD08BDFFF72DFE08BDFFF730FE08BDFFF78BFF08BD76
:400580001F20FFF757FF08BD2020FFF753FF08BDFFF7C0FD08BD00BF10B500F04BFA40B1044600F05DFA034800F066FA2046FFF7ABFF10BDE819000008B5FFF7EDFF08BD18
:4005C00008B5094800F084FA00F026FA074800F053FA074800F050FA064800F04DFA064800F04AFA08BD00BFB9050000501A0000741A0000881A00009C1A0000FEE700BF1D
:40060000F0B40022174611E050F82760F3B226F0FF0608E001EB420511F812406D78A5550132013BDBB2002BF4D10137202FEBD9F0BC70470C4B1B78DBB203F007010B4A61
:4006400011701B09013213700122094B1A70102203F6F3031A708023064A1370F83213704422054B1A707047CF0100496E5800400D510040085A00407658004008B50A46DF
:40068000002101F080F908BD08B501F071F908BD38B50024374B1C80502202331A700E2202331A801823344A1370EF2102321180023213704FF49C7102321180023213701A
:4006C00040F25721023211800232137004222B492B48FFF7D9FF02222A4B1A7008224FF040231A70032103F500731970264B1B78DBB226490B70264B1A8041F25122023BFF
:400700001A8019250CE0234B1B7803F0010343EA440404F003044FF4F07001F0EDF8013D0DB1032CEFD115B90320FFF767FF1A4B4FF480721A8007221A70002217490A70F9
:400740004820023108701A700222033B1A7004220A331A70124A137843F01F031370013A137843F001031370013A137843F08003137038BD80400040864000401009004869
:40078000004100400043004008010049A146004022420040254200400440004006400040A2430040012807D8044B53F820201844017A13780B431370704700BFB41A0000E9
:4007C000012808D8044B53F820201844017A137823EA010313707047B41A000038B572B6314A137843F00403137000240BE02F4863001A19510001440A46098AD068FFF700
:400800003DFF0134E4B2062CF1D929494FF09040FFF7F6FE0A24274B1C70274A137843F0020313701032137843F002031370234D2B7843F040032B70A2F58632513A137856
:4008400043F01003137008221D491E48FFF71CFF22461D491D48FFF717FF08221C491D48FFF712FF22461C491C48FFF70DFF22461B491C48FFF708FF1B4A137843F00803E0
:4008800013701A4C61232370FFF702FF812323700122174B1A70FFF7CDFE0E2229461548FFF7F2FE38BD00BFE8460040B41A0000840000488358004003500140A0430040CA
:4008C000DC08004802510040E4080048C0510040F0080048F2510040F8080048105100400409004820510040224300400048004004000840B043004008B501F00DF8036838
:400900000C2B00D1FEE7FEE708B5104E104D16E029686B68AC68002204E051F8040B43F8040B0432A242F8D1E868002203E0002143F8041B04328242F9D11035013E002E2E
:40094000E6D100F0EFFFFFF79DFBFEE701000000101B000008B5104A104B1A60104A136843F40073136000230AE0032B03D80D4A52F8231000E00C490C4A42F8231001334F
:400980002F2BF2D90A4B1A780A4B1A70074A0A4B1A60FFF723FF08BD0004FA050CED00E014ED00E000000000F90800000080FF1FBC760040C080FF1F08ED00E07222074B68
:4009C0001A702022013B1A7006229F331A70472210331A700022AC3B1A7070478A64004010B500F091FF04460A4A137843F020031370013A137843F010031370033213789D
:400A000043F01003137000F0F7FD204600F080FF10BD00BF9A64004008B5054B1B7823B9FFF7CCFF0122024B1A70FFF7D9FF08BD8481FF1F084B1B78DBB213F0200F06D002
:400A4000064A1078C0B213F01E0F02D17047002070470020704700BF6964004049640040034B1B7813F0040FFAD1024B187070476C6400404C64004038B5074B1B782BB907
:400A800038BDFFF7EDFF0134A4B201E005460024285D0028F5D138BD8481FF1F014B1B68D864704708ED00E04001C0B2014B1870704700BF03E400E00822014B1A607047F7
:400AC00000E100E00822014B1A60704780E100E010B50446FFF7F6FF2046FFF7DFFF0720FFF7E2FFFFF7E8FF10BD00BF014B1B685864704708ED00E04001C0B2014B187014
:400B0000704700BF01E400E00222014B1A60704700E100E00222014B1A60704780E100E010B50446FFF7F6FF2046FFF7DFFF0720FFF7E2FFFFF7E8FF10BD00BF0222014B2B
:400B40001A60704780E200E0014B1870704700BF7A650040084A137843F0010313701032137843F00103137002F64D32137843F001031370704700BFA3430040014B18704F
:400B8000704700BF034F0040014B1880704700BF044F0040014B1880704700BF064F004008B5154A137803F0010313700232137803F0FC031370114B1A7802F0CF021A70C1
:400BC0001A7842F030021A701A7802F0F0021A701A7842F00F021A70094A137843F0010313703120FFF7D0FF3120FFF7D3FF0020FFF7C4FF08BD00BF004F00400B4F0040C9
:400C0000014F004008B5054B1B7823B9FFF7C8FF0122024B1A70FFF79DFF08BD8681FF1F014B1B689864704708ED00E04001C0B2014B1870704700BF02E400E00422014BE9
:400C40001A60704700E100E00422014B1A60704780E100E010B50446FFF7F6FF2046FFF7DFFF0620FFF7E2FFFFF7E8FF10BD00BF044A137803F0FB03800000F0040018436B
:400C800010707047C051004038B50024134B1C70012514331D7000F037FE114A137843F01003137000F034FE07220E4B1A700E4B1D602146204600F007FE0C49204600F072
:400CC000EFFD10220A4B1A700A4B1C700A4B1C700A4B1C70122000F07DF938BD74650040986500408B65004080E100E0510D0000A083FF1FA583FF1FA483FF1FA683FF1F8F
:400D000008B500F001FE064A137843F02003137000F0FEFD034A137843F00103137008BD9B6500407465004008B5074B1B7823B9FFF7AAFF0122044B1A70FFF7E1FF0122A6
:400D4000024B1A6008BD00BF8781FF1F00E100E008B5894B1B78DAB2884B1B7813F0400F40F00881854B1B7813F0100F00F0FF8012F0200F03D102F00903092B15D17F4B45
:400D80001B78DBB2112B10D17D490B7803F0DF030B707C4B197801F0DF011970197841F0100119701021754B197012F0010F00F0E18012F0080F53D0734B1B7813F0010FD2
:400DC00037D0724B1A78D2B2714B1B78DBB29A421BD26E4A1378DBB26E490968CB5CDBB269490B7005216C4B1970FF21603B197000214033197013780133DBB21370614A5A
:400E0000137843F0020313700FE0FF235E4A1370052170321170603A137000225F4B1A70584A137843F0060313701222534B1A7008BD0122584B1A70FF22603B1A700022AF
:400E400040331A7011224D4B1A704E4A137843F0200313704A4A137843F02003137008BD464B1B78DBB2112B2DD14D4B1A78D2B24C4B1B78DBB29A4216D2434B1978C9B2B9
:400E8000012270331A70FF22603B1A70002240331A70434A1378DBB243480068C15413780133DBB2137008BD11223B4B1A70FF22603B1A70002240331A70324A137843F05A
:400EC0004003137008BD2D4B1B78DBB2122B4AD112F0020F2FD12D4B1A78D2B22C4B1B78DBB29A4216D2294A1378DBB229490968CB5CDBB224490B700521274B1970FF2130
:400F0000603B197000214033197013780133DBB2137008BDFF231C4A1370052170321170603A137000221D4B1A70164A137843F00403137008BDFF23134A13701521703210
:400F40001170603A13700022144B1A700D4B1A7802F0FD021A701A7842F001021A701022064B1A7008BD002000F078FC08BD1022024B1A7008BD00BF68650040A083FF1F1C
:400F800088650040A583FF1F04650040A483FF1FA783FF1FB083FF1F7465004054650040A683FF1FA883FF1FAC83FF1F0121064B1960064B18781A7802F02F021A70044BED
:400FC000196000F0F000704780E100E0A583FF1F00E100E000F07F00014B1870704700BF24650040024658B101230648036006480260064A11700021054A1170054A1360BD
:40100000704700BF80E100E0B083FF1FA783FF1FA483FF1F00E100E0024658B101230648036006480260064A11700021054A1170054A1360704700BF80E100E0AC83FF1FFC
:40104000A883FF1FA683FF1F00E100E0014B1878704700BFA683FF1F0022014B1A707047A483FF1F084A137843F0010313701032137843F00103137002F5A5521E321378AB
:4010800043F0800313707047A9430040044A137803F0FC0300F0030018431070704700BF0158004008B506220A4B1A70013308221A701A7842F010021A70812201331A70FF
:4010C000054A137843F0080313700320FFF7DEFF08BD00BF005800400B5A004008B5054B1B7823B9FFF7DEFF0122024B1A70FFF7B9FF08BD8881FF1F10B59DF80840012CEC
:4011000051D1013809282ED8DFE800F0052D2D052D2D0F192D230F2B03D92548007840B222E02448007840B21EE00F2B03D92248007840B218E02148007840B214E00F2B8A
:4011400003D91F48007840B20EE01E48007840B20AE00F2B03D91C48007840B204E01B48007840B200E0002001EB401101FB02F1C90B8AB20D2B0BD8C3F10E0289B21141DD
:401180008AB2611E124800EB810101338B7005E0631E0F4901EB83030F219970013C0C4B23F8242010BD002000F058FB10BD00BF180100491C010049190100491D010049D4
:4011C0001A0100491E0100491B0100491F0100498C81FF1FF8B5074600F096FB06460D4D2B7843F003032B700B4C237843F0030323700A4B1F70032000F048FB2B7803F004
:40120000FC032B70237803F0FC032370304600F07FFBF8BDF8460040F9460040925800400022324B1A7101285FD170B53022304B1A70042202331A70062201331A7000244A
:4012400001331C7001331C703F2201331A7002331C7001331C7001331C7001250A331D70502203F527631A70072201331A70292201331A7001331C70552203331A705A22BD
:4012800001331A7001331C7002331D70112201331A70192201331A70972201331A705220FFF798FF5822134B1A7001331C70052605331E70022201331A7001331C700133A5
:4012C0001C70204600F0B6F942F222220A4B1A602946304600F0D2F92946222000F052FA06491D2000F0DCFA70BD70478C81FF1F004E004094580040B483FF1F25150000DF
:40130000F0B583B0284D01272F70284E00247471102000F0A1F9102000F022FA07211D2000F0D2FA0422224B1A7001331C7007331C70204A137843F0180313701E4B1C70A5
:4013400003F2F5231C7001331C700A22A3F209331A7001331C7002331C705B2205331A705E2201331A7004331C701422A3F68C231A70009710234FF4004247F602710320A2
:40138000FFF7BAFE2B78013B06EB83039A780B4B1A702B78013B36F82320094B1A802878FFF73EFF03B0F0BDCD80FF1F8C81FF1F96580040075B0040935800400E4E004099
:4013C0000C4E004070B500F09FFA06462A4B1B782A4B1A7842F001021A701A7842F010021A7010331A7842F001021A701A7842F010021A70224D2B7843F002032B70214CE5
:40140000237843F0020323701F4A137843F003031370032000F03AFA2B7803F0FD032B70237803F0FD032370184A137843F0060313707A22164B1A70164A137843F00103A8
:4014400013701032137843F0010313700F3A137843F0010313701032137843F0010313704FF000530C4A1360A2F5C0721360304600F04EFA70BD00BFCD80FF1FAA43004084
:40148000F8460040F9460040915800407758004082580040A143004080E200E008B5084B9B794BB9064BDB7913F0FF0F01D1FFF727FF0122024B9A71FFF784FF08BD00BF33
:4014C0008C81FF1F024A137843F0010313707047004E00400E4B1B7803F00303012B03D80C4B188880B209E00A4A12780A49087842EA0020032B01D1084B1B78084B1B7923
:4015000013F0FF0F02D00022054B5A7100B27047144E0040104E0040114E0040124E00408C81FF1F704700BF024A137843F08003137070477B640040014B1870704700BFD2
:401540000D640040014B1870704700BF4D640040014B1870704700BF2D640040014B1870704700BF3D64004008B50C4A137803F0C00343F00B0313702232137843F001030B
:4015800013706420FFF7D8FF6420FFF7DBFF0E20FFF7DEFF1420FFF7E1FF08BD7B64004008B5054B1B7823B9FFF7DEFF0122024B1A70FFF7B9FF08BD9881FF1F044A137848
:4015C00003F07F03C001C0B218431070704700BF20510040044A137803F0BF03800100F0400018431070704720510040014B1870704700BF7D640040054A137843F008033C
:4016000013701032137843F008031370704700BFA243004010B5002404E02046FFF7D0F80134E4B2012CF8D9FF22014B1A7010BDCE80FF1F10B50446FFF7ECFF2046FFF7C8
:40164000B1F8014B1C7010BDCE80FF1F014B188880B2704780400040034B1A7800F0F80010431870704700BF82400040024B187800F00700704700BF8240004070B5054604
:401680000E46FFF7F3FF0446FFF7E0FFA84256D02B4B1B7803F0010294B900B185B938B9284B1D80284A137803F0BF03137070BD254A137843F040031370224B1D8070BDF7
:4016C00022B3002321490B7001240F310C7004310B700C390B7803F07F030B701A4B1B7813F0080F00D08DB9194B18800721013B1970164B1B7813F0010FFAD110490B7805
:4017000003F0FE030B700021104B19700C4B1B7813F0010F0DD00E4B1D800EB1032200E001220A4B1A70094B1B7813F0010FFAD170BD044B1D8002490B7813430B7070BDF5
:40174000A243004080400040824000400140004002400040014B188880B2704700410040034B1A7800F0F80010431870704700BF02410040024B187800F00700704700BF03
:401780000241004070B505460E46FFF7F3FF0446FFF7E0FFA84256D02B4B1B7803F0010294B900B185B938B9284B1D80284A137803F0BF03137070BD254A137843F04003BD
:4017C0001370224B1D8070BD22B3002321490B70012413310C7004390B7008390B7803F07F030B701A4B1B7813F0080F00D08DB9194B18800721013B1970164B1B7813F0F9
:40180000010FFAD110490B7803F0FE030B700021104B19700C4B1B7813F0010F0DD00E4B1D800EB1032200E001220A4B1A70094B1B7813F0010FFAD170BD044B1D800249BE
:401840000B7813430B7070BDA14300400041004002410040014000400240004001BE704710B5044605E0084B186800F045F8A4F50044B4F5004FF6D8034B586800FB04F0B2
:4018800000F03AF810BD00BFD080FF1F08B5034B1B7A00FB03F000F02FF808BDD080FF1F70B504460E46074B1D681F2802D90020FFF7D4FF04F01F04103455F8240045F886
:4018C000246070BD08ED00E038B504460D46072902D90020FFF7C2FF1F2C02D90020FFF7BDFF04F01F0000F1604000F564406D01EDB2057038BD00BF0230800803D000BF3F
:4019000001380046FCD17047EFF3108072B6704780F31088704700BF014B1868704700BF4081FF1F0E4B70B51E460E4C0025E41AA410A54204D056F8253098470135F8E74C
:4019400000F0D4F8084B094C1E46E41AA4100025A54204D056F8253098470135F8E770BDF81A0000F81A0000F81A0000001B000010B5431E0A44914204D011F8014B03F88D
:40198000014FF8E710BD03460244934202D003F8011BFAE7704700000000000042616C6C2044697370656E73696E670D0A00000042616C6C2044697370656E7365640D0A2F
:4019C0000000000042616C6C2044697370656E73657220494E49540D0A000000446574656374696F6E4953520D0A0000436F696E6D617374657220323030302064697361D8
:401A0000626C65640D0A0000436F696E6D6173746572203230303020656E61626C65640D0A000000466F72776172640D0A0000005265760D0A000000456E61626C650D0A71
:401A40000000000044697361626C650D0A000000436F696E6D6173746572203230303020726561647920666F7220736572766963650D0A00723A2052656A65637420436FE5
:401A8000696E0D0A00000000613A2041636365707420436F696E0D0A00000000523A205265736574204465746563746F7220495352000000035B00402443004040000000D1
:401AC000004F00400C0030510040400000000140001000140140000800400140000A004C014000020050014020004300F8B500BFF8BC08BC9E4670474D0000005509000064
:401B0000F8B500BFF8BC08BC9E46704729000000201B0000C880FF1F8000000070020000000000000101FF000000E02EC05D00001800000000366E01000000000000000081
:401B4000000000000000000000000000000000000000000000000000EA1A000000000000000000000000000000000000000000000000000000000000000000000000000061
:401B8000000000000000000000000000000000000000000000000000E080FF1F000000000000000000000000000000000000000000000000000000000000000000000000A7
:401BC00000000000000000000000000000000000000000000000000000000000000000000000000000000000000000000000000000000000000000000000000000000000E5
:401C000000000000000000000000000000000000000000000000000000000000000000000000000000000000000000000000000000000000000000000000000000000000A4
:401C40000000000000000000000000000000000000000000000000000000000000000000000000000000000000000000000000000000000000000000000000000000000064
:401C80000000000000000000000000000000000000000000000000000000000000000000000000000000000000000000000000000000000000000000000000000000000024
:020000040003F7
:0200000480007A
:40000000024F004006520040025A0040036400400265004003070140580801404B090140480A01403A0B0140600C01403D0D014051140140471501400C1701404E1801408D
:4000400052190140481A0140581B01400540014004410140084201400843014006440140104501400C46014006470140074801400D490140104C0140074D01400650014028
:400080000151014001200A4B08600950102C1109600264430B040C0489388A728C0F24048B078901E201EA0100060126020803410405078408050C010D630F90100511F43C
:4000C0001402150319441A071B231C011E061F1020032204230824012525274228062A092E0131F0330F3503360F3B083E403F10580459045C105F0187028A028C018F0420
:400100009A029B01A401A702A801AF04B104B201B402B703BE10BF41C063C104C205C401C60CC70EC814C9FFCAFFCBFFCC62CDA0CEF0CF41D00CD418D604D804D904DA0443
:40014000DB04DC03DD33DF01E640E702E910EA30EB10ED10EE10EF120160042A058007100B080C040E400F0A111414D0176018041A101F802001210124102614276028201E
:4001800029402F903220340135043760388039083A203B103D023E083F8240014210430649505040530459026006620278027902820289808A20915492A0930196449920F1
:4001C0009B019C659D109EE09F54A0A8A109A302A410A594A704AA02C0F3C2F2C4F6CACACCF4CEDAD00BD20CD601D80DE48001040401050609020D4E0F2110011601173158
:40020000194E1B111E011F40217F254029792B06330834013507377638203A023BA03F0456025712580459045B045C335D305F01808081058213830287078B088D028F0591
:400240009105920C9502982C99059A439C719D049E06A107A505A608A871AA0EAB01AD05B0C0B10FB230B40FB80ABA20BB02BE04D280D804D904DB04DC13DD40DF0102101B
:4002800006400AA00B010C100D020E0911081308172819211A801B021D0A1E082140221423012501282029112A102C402E6431803210330434053750382839803A023D2216
:4002C0003E803F085A08695470BC72027502841092019B219C109D029E40A202A506B348B740C014C2DDC460CAF7CCFECEFFD602E0080110021503AC041305100604074073
:400300000B030D14120813201420190C1B711C131E0C2040240A25DC2614272228032A142D092FD03020321033E03440351F360F3A803B083E154014410245E0460B470CF1
:40034000481649FF4AFF4BFF4EF04F44500C5401580459045A045B045C335D335F0166C06A406B0282028A018B018C01A401AB01B001B402B501B902BF01C020C103C50115
:40038000C650C702C81BC9FFCAFFCBFFCDA0CF04D018D804D904DA04DB04DC44DD04DF01E040E2C0E440E540E6C0E8C0EAC0ECC0EEC000800122064007200D020E61102086
:4003C000141015111604188019201A041D801E091F0A2202230425102610272029202C102E40372238203D283E013F804104420445804640472248604D0150105104560475
:4004000057405D115E085F4069046A206B418202850487068C408E10C03BC2B0C474CA54CCA0CEF4D0B6D6F0E00BE4020220044005FF068609B00A010B030EC110811103C1
:40044000124414081620180719021B4C1C401D4C1E831F012114222823E8253C2620282029C02B142C102DE82F14300831FF3207343036C039023E4140254403450B460D74
:40048000480549FF4A7F4BFF4C424DA04E70500C521D580459045A045B045C115D115F01610962406309643065098304870289019301960197089B019F01AB01B108B201AD
:4004C000B302B501B704D804D904DC11DF0100620108084109800A380F10114012201312184419481A081B081E20210225082682270A284129042B082E10310232903691DE
:40050000370838043A203D043E013F104108432049444A4050806810694172028222840185028651890C8B108C448E239220950198019F02A180A320A490A708AA10B308F8
:40054000B480C00FC22FC40FCA2FCCFDCEE6D006D208E020E204E40EEC10EE0488108F0295019801A180A320A980AC01AF20E280EA02EE0900020109030604030501080375
:400580000B0F0C030D030F101003110C150C160117201A031B011C031F0320032103231C25052604270A29012A032C032D01351F360737203A803F104003470449FF4A07F3
:4005C0004BFF4C404D204EF04F05500854205604580459045A045B045C115D135F01604061A86240632084638A678C678E18907F9478960798219C1C9E63A010A408A818C8
:40060000AC42B003B478B61CBA20D804DC03DF0100400220030404290601074008200AA00B010E490F1010AA14881602170819521E011F802680270828082A202B042E50BC
:400640002F903410358436023C103D423E0645084E024F80550456405C015EA0644065207A407B808406850488448C408D549010911492A09311942A9509964497209B456F
:400680009CB59D569E48A0A8A109A204A410A594A620A744A901AE90AF20B101C0F7C2FFC4FFCAF0CCF0CEF0D040D6B0D8A0E010E280E482051F091F0E021202140215128F
:4006C000170519041B182203250927262A02300133033402351C37203E10580459045B045C315F018146833985048A048B778C088D038E2090089104923095639A1B9B0481
:400700009C019D259E1A9F52A001A21AA301A402A619A714A810A904AA48AD66AF08B038B238B360B407B51FB640B908BA0ABE10BF10D602D728D804D904DB04DC11DD109A
:40074000DE08DF010040060D08080B800E800F0A10041280148016201720184019201A801EA01F50218C22202510260828202C012D8A2E1031083220349435043701391452
:400780003C103D023E243F824C014DC06720681469816C146E546F017D4081028208841888208B608D888E458F0490109114942A95C99654988099049C319D209E09A1014B
:4007C000A280A340A414A590A630A704AA80B080B180B220B311B740C0C1C2DCC47ACAF2CCF6CEF6D840DE10E040E210E470E680E820EC503040320435803704CCF09608C9
:400800009C409D809F041280600196089C409D809F04C410D64083049C409D809F04A801AE84E280EA80310870027D20CC02DC01DE01518054805B205D806680811084026F
:40084000868087028D0AA402A518D407D605E002E4084508848099029B029D809F20A310A480A580B710D001E80899029B029D809F20A310A5880580251088409C409D8013
:40088000C080C8201240148076107B02830286508880B510C430DC80DE20E010E26058015F026320650285808F2099029B029F20A310A588B180D603D803E408EC01104042
:4008C0008840B001B508C408E201EC0C001A0C1A0E18100A1A021C0A00EF000000000000000001008700408087008300000000000800000000000000900000FBFB00F0009A
:4009000000000000090000EFEF002F000000000022001801000000000000000000000000000000000000000000000000000000000000000000000000000000000000000066
:400940000000000000000000000000000000000000000000000000000000000000000000000000000000000000000000000000000000000000000000000000000000000077
:400980000000000000000000000000000000000000000000000000000000000000000000000000000000000000000000000000000000000000000000000000000000000037
:4009C00000000000000000000000000000000000000000000000000000000000000000000000000000000000000000000000000000000000000000000000000000000000F7
:400A000000000000000000000000000000000000000000000000000000000000000000000000000000000000000000000000000000000000000000000000000000000000B6
:0200000490006A
:0400000000004005B7
:0200000490105A
:04000000BC90ACAF55
:0200000490303A
:02000000434576
:0200000490402A
:4000000000000000000000000000000000000000000000000000000000000000000000000000000000000000000000000000000000000000000000000000000000000000C0
:400040000000000000000000000000000000000000000000000000000000000000000000000000000000000000000000000000000000000000000000000000000000000080
:400080000000000000000000000000000000000000000000000000000000000000000000000000000000000000000000000000000000000000000000000000000000000040
:4000C0000000000000000000000000000000000000000000000000000000000000000000000000000000000000000000000000000000000000000000000000000000000000
:0200000490501A
:0C00000000012E16106900012E2253AEE4
:00000001FF